:020000040800F2
:10000000F8120020D9020008B74000085D3C000843
:10001000B54000081F1A00088542000800000000D3
:10002000000000000000000000000000BB400008CD
:10003000511A000800000000B9400008BD40000847
:10004000F3020008F3020008F3020008F3020008BC
:10005000F3020008F3020008F3020008F3020008AC
:10006000F3020008F3020008F3020008F30200089C
:10007000F3020008F3020008F3020008F30200088C
:10008000F3020008F3020008F3020008F30200087C
:10009000211A0008F3020008F3020008F302000826
:1000A000F3020008F3020008F3020008F30200085C
:1000B000F3020008F3020008F3020008F30200084C
:1000C000F3020008F3020008F3020008F30200083C
:1000D000F30200086D420008F3020008F302000872
:1000E000F3020008F3020008F3020008DD400008F4
:1000F000F3020008F3020008F3020008F30200080C
:10010000F3020008F3020008F3020008F3020008FB
:10011000F3020008F3020008F3020008D1400008CF
:10012000F30200082D1A0008391A0008F30200082B
:10013000F3020008F3020008F3020008F3020008CB
:10014000F3020008F3020008F3020008F3020008BB
:10015000F3020008451A0008F3020008794200087B
:10016000F3020008F3020008F3020008F30200089B
:10017000F3020008F3020008F30200080000000088
:10018000F3020008F302000800F002F800F094F80F
:100190000AA090E8000C82448344AAF10107DA45E2
:1001A00001D100F089F8AFF2090EBAE80F0013F0A0
:1001B000010F18BFFB1A43F00103184758560000FF
:1001C00078560000103A24BF78C878C1FAD8520790
:1001D00024BF30C830C144BF04680C6070470000C1
:1001E0000023002400250026103A28BF78C1FBD840
:1001F000520728BF30C148BF0B6070476E2900F01E
:10020000FB81702900F03D83662905F0668265292F
:1002100005F06382672905F060826129AFF30080F1
:1002200003681B0A28BF41F08001692900F0A881FA
:10023000642900F0A581752900F0A2816F2900F0E2
:10024000CA82782900F00983E92900F06582E4294F
:1002500000F06282F52900F05F82EF2900F0C7828A
:10026000F82900F008830368DB0928BF41F080010A
:10027000632900F09086732900F09586E32900F049
:10028000A086F32900F0A586002070471FB505F071
:100290001AFA00F0F5FE04000020002105F04AF8EB
:1002A000401C60600020002105F02EF8E06000F0A6
:1002B000E7F81FBD10B510BD00F0B4FE1146FFF702
:1002C000E5FF04F0A5FE00F091FF03B4FFF7F2FF95
:1002D00003BC00F0D5FF00000948804709480047EB
:1002E000FEE7FEE7FEE7FEE7FEE7FEE7FEE7FEE7E6
:1002F000FEE7FEE704480549054A064B7047000043
:10030000C140000889010008F80C0020F812002004
:10031000F80E0020F80E002053EA020C00F069806D
:100320002DE9F04B4FF00006002B1FBFB3FA83F509
:1003300003FA05F424FA05F65E4012BF1643B2FA3A
:1003400082F502FA05F4C5F120051EBF22FA05FC6C
:1003500044EA0C04203556EA044C4FEA144418BF12
:10036000641C4FF000084FF00009904271EB030C41
:1003700039D3002919BFB1FA81F701FA07F6B0FAAB
:1003800080F700FA07F6C7F120071EBF20FA07FC26
:1003900046EA0C062037B6FBF4FCA7EB0507103F36
:1003A00007F01F0BCBF120060CFA0BFB2CFA06F61C
:1003B00044BFB3460026202FA4BF5E464FF0000B7B
:1003C0005BEA060C08BF4FF0010B19EB0B09ABFB06
:1003D000027C48EB0608C01B06FB02CC0BFB03CCDF
:1003E00071EB0C01C1E70B46024641464846BDE8A9
:1003F000F08B13B54FF000004FF00001AFF3008019
:10040000BDE81C40704700001CB50C46064B7B4401
:1004100069460090204600F008F90446002069462D
:1004200000F016F920461CBD3F0200004FF000020C
:1004300000B5134694469646203922BFA0E80C50DA
:10044000A0E80C50B1F12001BFF4F7AF090728BFB5
:10045000A0E80C5048BF0CC05DF804EB890028BF31
:1004600040F8042B08BF704748BF20F8022B11F05A
:10047000804F18BF00F8012B7047704770477047D6
:1004800070B5064C7C44064D7D4403E02068204452
:100490008047241DAC42F9D170BD0000D854000043
:1004A000D854000010B500F0BBFA006810BD10B5BC
:1004B000044600F0B5FA046010BD70B504468569C5
:1004C0000068C10601D5302600E02026C00707D00D
:1004D00070BDD4E9012130469047206A401C20625B
:1004E0006D1EF6D570BD70B5044685690078C007ED
:1004F00007D170BDD4E9012120209047206A401C1B
:1005000020626D1EF6D570BD09684A0501D540B25E
:100510007047C905FCD500B2704709684A0501D586
:10052000C0B27047C905FCD580B2704770B50C46A3
:100530000546012A05D02878800600D5EA690023FF
:1005400002E0012305E05B1C934202D2E05C00283C
:10055000F9D1A869E618C01AA861286A1844286267
:100560002846FFF7AAFF04E0D5E9012114F8010BA2
:100570009047B442F8D32846FFF7B5FF70BD00009E
:100580002DE9F0410646002410687529314616A56C
:1005900010D0FFF7B9FF002802DA404213A507E0A8
:1005A00031688A0701D512A502E0490704D511A5D3
:1005B000012401E0FFF7B1FF00210A2206F1240720
:1005C00009E0B0FBF2FCB0FBF2F302FB1C003030A0
:1005D00078541846491C0028F3D123462A46304651
:1005E000BDE8F04100F065BA000000002D000000F9
:1005F0002B0000002000000011680268006A53050B
:1006000001D508700AE0D30501D5088006E013067D
:1006100003D5C217C1E9000200E00860012070475D
:1006200001694A1C02610878704700B58FB0CDE9B6
:1006300001310021059105497944CDE903101146A6
:10064000684600F029F90FB000BD0000E5FFFFFF8C
:100650000A6802F8010B0A60704700002DE9FF5F8D
:1006600015468A460446DFF8AC80F8440027D8E9EE
:1006700000103E46CDE9001010E03AF816106A4628
:1006800002A800F0AAFC411C07D02178890603D5F6
:10069000E269391891420DD80744761C207880060B
:1006A00002D5E069B84205DDAE42E6DB3AF8160055
:1006B0000028E2D1A069C01BA0612046FFF7FDFE23
:1006C000D8E90010CDE90010002017E03AF8181022
:1006D0006A4602A800F081FCB0F1FF3F81460BD0D2
:1006E00000250DF1080B05E0D4E901211BF80500F8
:1006F00090476D1C4D45F7D308F10100B04280468C
:10070000E4DB206A384420622046FFF7ECFEBDE8B7
:10071000FF9F0000AE5000002DE9F0418046D21D41
:1007200022F007020025D2E90002F52915A614D00F
:10073000011E72F1000106DA0023D0EB030063EB27
:10074000020211A608E0D8F800108B0701D50FA609
:1007500002E0490701D50EA601251146002408F143
:10076000240704E000F060F930323A55641C50EA86
:100770000102F7D12B46324621464046BDE8F04102
:1007800000F097B9000000002D0000002B000000D1
:100790002000000030B4002100F1240408E002F041
:1007A0000705D208303542EA4372DB086554491C1C
:1007B00052EA0305F3D10468002310A2250707D5E8
:1007C000A40600D421B1C46901230DA2641EC46132
:1007D00030BC00F06EB910B5044621461068FFF732
:1007E0009CFE02462046BDE810400023D2E7D21D01
:1007F00022F00701D1E90023CCE70000000000004F
:1008000030000000F0B40D460188090502D5214CE6
:100810007C4402E01F4C7C440E34002100F124068D
:1008200008E002F00F071209E75D42EA03721B09B4
:100830007754491C52EA0307F3D1027800231207C8
:1008400004D5702D06D009B1022311342246F0BC24
:1008500000F02FB901231034F8E770B504460D46B7
:1008600021461068FFF759FE024629462046BDE89A
:1008700070400023C6E7D21D22F00703D3E900230E
:10088000C0E70368126843F0200303600823C361D4
:100890000023B7E7104F00002DE9F05F89460446BA
:1008A0004FF0000ADFF874B1FB44C0F820A02046E6
:1008B000E1688847002874D0252806D0D4E90121B2
:1008C0009047206A401C2062F1E700265F462046E0
:1008D000E16888472028054607DB312D05D27819C5
:1008E00010F8200C08B10643F1E7B00701D526F057
:1008F0000406C4F81CA00027C4F818A02A2D09D0AB
:10090000284604F07DFB38B304EB8708303DC8F877
:10091000185019E059F8041B204604EB8702916136
:10092000E1688847012F054618D1E069002820DAE0
:1009300026F020061DE0D8F8180000EB800005EB3B
:1009400040003038C8F818002046E168884705465E
:1009500004F056FB0028EED1012F0AD02E2D08D12D
:100960002046E16888477F1C0546022F46F0200696
:10097000C4DBA069002803DA404246F00106A0610A
:10098000F00701D026F010066C2D0BD0682D09D091
:100990004C2D39D06A2D35D0742D35D07A2D33D0E9
:1009A00016E038E0E1682F4620468847B842054601
:1009B00009D16C2F26D04FF48060E16806432046B1
:1009C0008847054604E06C2F1AD04FF48070064328
:1009D0000DB3A5F14100192802D8203546F4006670
:1009E0004A462946204626604E46FFF707FC80B15E
:1009F00001280BD0F61D26F0070000F1080956E784
:100A00004020E4E78020D8E70020D6E706F104097B
:100A10004DE7284652E7206ABDE8F09FA04E00004F
:100A200000487047940C002030B5B0F10A024FEA3C
:100A3000900E71F100034EEA817EB0EB0E0061EB87
:100A400091014FEA101E4EEA017E10EB0E0041EBC1
:100A500011114FEA102E4EEA016E10EB0E0041EB21
:100A600011214FEA104E4EEA014E10EB0E0041EB01
:100A70001141401841F100014FEAD00040EA4170B5
:100A80004FEAD10110EB80054FEA810444EA9074EB
:100A900044EB01046D1944EB0404521BA3414FF0D5
:100AA000000348BF0A3200D530BD401C41F10001AF
:100AB00030BD2DE9F0470D4699469246044600F1B7
:100AC00024080168880604D5E06921F0100121603E
:100AD00000E00120A84201DD471B00E00027A169DA
:100AE0007A1902EB0900081AA0612078C00602D426
:100AF0002046FFF7E2FC002608E0D4E901211AF8BD
:100B000006009047206A401C761C20624E45F4DBAC
:100B10002078C0060AD52046FFF7CFFC06E0D4E9CE
:100B2000012130209047206A401C2062381EA7F126
:100B30000107F4DC07E0D4E9012118F8050090472B
:100B4000206A401C2062281EA5F10105F3DC204626
:100B5000FFF7C9FC2078000602D50220BDE8F08727
:100B60000120FBE770472DE9FF4F0C461E464FF072
:100B7000FF378BB0D2E90001DDF860800A908A4629
:100B8000C1F30A5505B93D46002108464FF0000063
:100B9000BAF1000F00F4400005DA00EB80004FF4DA
:100BA000400101EA50004FEA9059B9F1010F00DD10
:100BB000B9460A9850EA4A000ED044F61050A5F201
:100BC000FF3545432F14B8F1000F1ED07542291E82
:100BD0001EDDC9F100021CE0B8F1010F4FF000006A
:100BE00001D0302103E0F24305E02154401CB04223
:100BF000FBDB30460022002121540B99C1F808800C
:100C0000C1E900200FB0BDE8F08FBD1B6D1CDEE711
:100C10004A4600DA694206A800F076FA06AB93E885
:100C2000070003AB83E8070050460A9900F02FFB4A
:100C30008DE80700A0F500501F3800900398002DA4
:100C40000ADD42F21F014A460844002303A903902B
:100C5000684600F098FD09E0A0F500504A461F38AC
:100C6000002303A90390684600F0A2FD8DE8070069
:100C70000004000C03D04FF0FF30410800E01046A4
:100C8000B8F1000F03D00022009215461EE0751E39
:100C900005D4FFF7C9FE303262556D1EF9D5B34653
:100CA0000122084302D000227F1C04E02078302873
:100CB00001D100227F1E002A099784D01DE0112D4A
:100CC00007DAFFF7B1FE303262556D1C50EA0102BF
:100CD000F5D1084302D00098C8B10EE00021681E8B
:100CE00005E0235C625C63542254401E491C81422F
:100CF000F7DBAB46A81B401E0990002004F80B0050
:100D00000B98099AC0F80880C0E9002B7AE71126F1
:100D10004FF0000857E72DE9F04F88460446D21DF2
:100D200022F0070191B0D1E90001CDE90A0103F0F9
:100D300078FF02460B98C00F01D02D2007E02068F5
:100D4000810701D52B2002E0202101EAC000032AFF
:100D5000099001D0072A05DB03464146204600F0F2
:100D600093F90BE12078800601D5E06900E00620C8
:100D7000B8F1650F814606D0B8F1660F18D0B8F10A
:100D8000670F70D131E00020B9F1110F009001DB45
:100D9000112301E009F101030AAA01A90CA8FFF738
:100DA000E2FEDDE90C70002609F10105834647E00B
:100DB00001204B4600904FF000470AAA01A90CA859
:100DC000FFF7D1FEDDE90DB00C995D46002610B9A4
:100DD00009F101000D18B9EB050003D4C0F1FF368D
:100DE00009F10105A5EB09002BE0B9F1010F01DACA
:100DF0004FF001090020B9F1110F0090484601DDC4
:100E0000112300E003460AAA01A90CA8FFF7ABFED4
:100E1000DDE90C704D4600268346207800070AD491
:100E2000AB4500DA5D4601A8012D04DD411911F83A
:100E3000011C302907D04F4502DA17F1040F04DAFC
:100E4000012082460FE06D1EEEE7002F02DCED1B55
:100E50003E4403E0781CA84200DD7D1CB81B00F175
:100E6000010A4FF000472078000703D4AA4501DBB0
:100E70004FF0FF3A0021B7F1004F0DF143088DF814
:100E8000431024D002202B23002F01DA7F422D2390
:100E90000A21021EA0F1010000DC5FB197FBF1FC0A
:100EA00097FBF1F201FB1C7C17460CF1300C08F8A3
:100EB00001CDEEE7A8F1010003702188090501D5F5
:100EC000452100E06521A0F1010800F8011C099806
:100ED0000FA9A1EB0807FF1D00B10120411901EB8B
:100EE000EA70A1693844081A401EA0612078C00643
:100EF00002D42046FFF7E1FA099828B1D4E901218C
:100F00009047206A401C20622078C00622D52046E7
:100F1000FFF7D3FA1EE0002E04DBB34502DD01A883
:100F2000805D00E03020D4E901219047206A401C18
:100F30002062761CAAF101005FEA000A0AD100F0E3
:100F40009FF8C0680168405CD4E901219047206A9D
:100F5000401C2062281EA5F10105DCDC07E0D4E975
:100F6000012118F8010B9047206A401C2062381EAE
:100F7000A7F10107F3DC2046FFF7B5FA032011B013
:100F800041E610B5436913B1AFF3008001E0FFF70C
:100F9000CDFA012010BD127800F124010A70002260
:100FA0004A700122EDE711684FF0FF32E9E710B512
:100FB000436913B1AFF3008001E0FFF74FFB01205D
:100FC00010BD128800F1240182840022C284012213
:100FD000EDE711684FF0FF32E9E770B516460C46B1
:100FE000054600F045F8036893F80101012806D092
:100FF000FF2C0FD8185D68B101202C7070BDD3F89C
:1010000007013246214603F2071303442846BDE890
:10101000704018474FF0FF3070BD00000048704727
:10102000940C00207546FFF7F9FFAE4605006946AF
:10103000534620F00700854618B020B5FFF75AF94F
:10104000BDE820404FF000064FF000074FF00008C9
:101050004FF0000B21F00701AC46ACE8C009ACE84A
:10106000C009ACE8C009ACE8C0098D467047000073
:1010700010B500F005F8001D10BD00BFB94200001A
:1010800000487047B40C00202DE9F0411F4604468B
:1010900003260168072A01F4006004DB08B116A5E5
:1010A00005E016A503E008B115A500E015A521F09F
:1010B00010002060A069C01EA0610FB1401EA06199
:1010C0002046FFF7FAF94FB1D4E90121384690479D
:1010D000206A401C2062C01C206206E0206AFAE7F9
:1010E000D4E9012115F8010B9047761EF8D220466D
:1010F000FFF7F9F9BDE8F0814E414E006E616E00D8
:10110000494E4600696E66002DE9F0478146164655
:101110008AB0354878440DC88DE80D0032487844CF
:10112000801C03AC0DC884E80D0041F69B300844D8
:10113000372190FBF1F290FBF1F5A5F1800501FB61
:1011400012041B3C02D56442012000E00020DFF8BD
:1011500098A080460027FA44AAF1BE0A0EE0E007F4
:101160000AD03246684607EB470101230AEB8101AA
:1011700000F01EFB8DE8070064107F1C002CEED1F0
:10118000194F7F44AE3F19E0E80715D007EB041074
:101190000DF1180A90E80E008AE80E00C068F042CF
:1011A00001D1981908903246012306A903A800F03E
:1011B000FFFA03AB83E807006D10641C002DE3D138
:1011C0004FF0010332466946B8F1000F03A802D080
:1011D00000F0D9FA01E000F0EBFAC9E90001C9F822
:1011E00008200AB0BDE8F087E446000010B50446C8
:1011F000AFF300802046BDE81040FFF766B800005E
:101200004FF0013C50F8042B51F8043B9A4221D195
:10121000A2EB0C03934313EACC1317D150F8042B21
:1012200051F8043B9A4215D1A2EB0C03934313EA05
:10123000CC130BD150F8042B51F8043B9A4209D13E
:10124000A2EB0C03934313EACC13DBD04FF0000066
:10125000704700BFD01A01BAB1FA81F101F018014C
:1012600022FA01F0CB40C1F12001DBB2C0B2C01ABA
:101270002CFA01F3D11A914311EAC311E6D1704758
:1012800001491820ABBEFEE72600020070475FEA66
:10129000400C08BF91F0000F4FEA8C234FEAC122A7
:1012A00043EA51514FEA1C5018BF00F5F0404FEA95
:1012B000300018BF41F000415FEA6C5C00F029800B
:1012C000BCF1FF3F08BF40F080407047130C06BFE1
:1012D00012044FF0100C4FF0000C130E04BF12025A
:1012E0000CF1080C130F04BF12010CF1040C930F46
:1012F00004BF92000CF1020CD30F04BF52000CF19A
:10130000010C11464FF00002A0F11F00A0EB0C00F1
:10131000704711F0004F08BF704731F000413FF4B3
:10132000D5AF0B0C06BF09044FF0100C4FF0000CAA
:101330000B0E04BF09020CF1080C0B0F04BF0901CE
:101340000CF1040C8B0F04BF89000CF1020CCB0FC5
:1013500004BF49000CF1010CCCF12003A0EB0C0000
:1013600022FA03F302FA0CF241EA030100F1010050
:10137000704720F07F4C80EA030023F07F47ACEBFE
:10138000070303F57C5300F0004003F1FF032DE950
:1013900080494FEA154B09B44FEA144325EA0B4E36
:1013A00024EA03480FF2042606EB132749083E7887
:1013B0005FEA320203FB0667C7F5000707FB06F684
:1013C0004FEA54374FEAD64606F1020607FB066C91
:1013D000CCF1005C4FEA1C472CEA074C07FB06F4F3
:1013E0000CFB06F504EB15464FEA961634BF0020B9
:1013F0004FF000404FEAD13706FB07FC4FEA1C4C88
:101400000CFB0BF7D21B03FB0CF761EB07010CFB8A
:101410000EF7B0EB074072EB17420CFB08F734BF36
:10142000A2EB0742B2EB074261EB17414FEA0C44D3
:101430004FEA910706FB07FC4FEA1C4C0CFB0BF72D
:10144000B0EBC74072EB573203FB0CF734BFA2EB93
:10145000C742B2EBC74261EB57310CFB0EF7B0EB62
:10146000C70072EB57720CFB08F734BFA2EBC70240
:10147000B2EBC70261EB5771039F4FEA816141EA0A
:10148000921104EBCC044FEAD1374FEA826206FB9B
:1014900007FC42EA90124FEA80604FEA1C4C0CFBBA
:1014A0000BF7D21B03FB0CF761EB07010CFB0EF7EC
:1014B000B0EB074072EB17420CFB08F734BFA2EB0E
:1014C0000742B2EB074261EB17414FEA8C554FEAF6
:1014D000910704EB9C2406FB07FC4FEA1C4C0CFB19
:1014E0000BF7B0EBC74072EB573203FB0CF734BF7E
:1014F000A2EBC742B2EBC74261EB57310CFB0EF7D0
:10150000B0EBC70072EB57720CFB08F734BFA2EBCD
:10151000C702B2EBC70261EB577115EB4C254FEADE
:10152000816141EA92114FEA82624FEAD13742EA81
:10153000901206FB07FC44F100044FEA80604FEA7A
:101540001C4C0CFB0BF7D21B03FB0CF761EB0701E8
:101550000CFB0EF7B0EB074072EB17420CFB08F7E1
:1015600034BFA2EB0742B2EB074261EB174115EB28
:101570001C154FEA813141EA92414FEA823242EA38
:1015800090424FEA80304FEA0C7644F1000448EA7A
:1015900003434EEA0B484FF0000EB2EB080C71EB20
:1015A000030724BF624639464EEB0E0E4FF0000B88
:1015B0000018524149414BEB0B0BB2EB080C71EB9D
:1015C00003077BF1000B24BF624639464EEB0E0E3B
:1015D0004FF0000B0018524149414BEB0B0BB2EBA3
:1015E000080C71EB03077BF1000B24BF6246394600
:1015F0004EEB0E0E51EA020718BF46F0010616EB3D
:101600000E7655F1000254F1000103D5BDE88901C1
:10161000BDE80088BDE88901BDE80048B61952411F
:1016200041EB0101A3F10103704780807F7E7D7C47
:101630007B7A7978777676757473727171706F6E64
:101640006E6D6C6C6B6A6A6968686766666564640F
:10165000636362616160605F5F5E5E5D5D5C5C5B99
:101660005B5A5A5959585857575656555555545408
:10167000535352525251515050504F4F4F4E4E4D66
:101680004D4D4C4C4C4B4B4B4A4A4A4949494848B2
:1016900048474747474646464545454444444443F2
:1016A00043434342424242414141002B9C4630D495
:1016B00077002BD01CB54FEA370703B44FF010006A
:1016C0004FF01001BAF1000F06D0BCF1000FDCBFE3
:1016D00040F0080040F008014FF000000FBCBDE8EA
:1016E00010400BF1010BBBF1010F08BF5FEA1707B8
:1016F00022BF12F1010211F101014FF0004143F14B
:10170000000300F0004043EA00007047F9D3570897
:10171000D0E746EA064613F1400F4FEA16461FDDB2
:1017200013F1200FDFBF16430A46002120335B422E
:10173000BED0C3F1200746EA064602FA07F74FEA91
:10174000164646EA0706C3F1200722FA03F201FA19
:1017500007F721FA03F14FF0000342EA0702A7E777
:1017600046EA020646EA06464FEA164646EA0106F9
:10177000BCBF46EA0646360C4FF000034FF00002AD
:101780004FF0000194E72DE9804C9A46934670B4DF
:1017900091E8380007C831EA400C48BF34EA430CEE
:1017A00003D5FFF7E6FDFFF780FFF0BCBDE8008C36
:1017B0002DE9804C9A46934670B491E8380007C8EA
:1017C00010F0804F08BF13F0804F03D100F005F8F0
:1017D000FFF76BFFF0BCBDE8008C20F07F4780EA8C
:1017E000030023F07F4C07EB0C03A3F57C5300F0C0
:1017F0000040A3F1FE0392F0000F00F0B38095F0DB
:10180000000F00F077802DE901494FEA11404FEABF
:10181000144621EA004800FB06FC24EA064708FBC0
:1018200006F607FB08F800FB07F718EB06484CEB39
:10183000164C4FEA124B18EB07484FEA15464CEB93
:10184000174022EA0B4E0BFB06FC25EA06470EFB6F
:1018500006F607FB0EFE0BFB07F71EEB064E4CEBE6
:10186000164C4FF000061EEB074E4CEB174B18EBD7
:101870000B0840F1000018EB0E0B58EB000840F18C
:1018800000008F1A4FF000013CBFC943661B14BF14
:10189000B5EB040C00213CBFC943F61B4FEA1744CB
:1018A0004EEA8E0E27EA04454FEA1C4704FB076206
:1018B0002CEA074C05FB07F70CFB05F604FB0CFCB8
:1018C00016EB074642EB174216EB0C4642EB1C4266
:1018D0001BEB060658EB0202414146EA9E0601D583
:1018E000BDE80189B619524141EB0101A3F10103A1
:1018F000BDE801894FEA14454FEA114724EA05463D
:1019000021EA074C05FB07F406FB07F70CFB06F181
:1019100005FB0CFC11EB074144EB17444FEA12475F
:1019200011EB0C4144EB1C4422EA074C05FB07F287
:1019300006FB07F70CFB06F605FB0CFC16EB07464F
:1019400042EB174216EB0C4642EB1C456A1854F169
:10195000000148BF7047B619524141EB0101A3F1A4
:101960000103704795F0000F37D04FEA11424FEA5C
:10197000144721EA024624EA074C02FB07F106FB62
:1019800007F70CFB06F402FB0CFC14EB074441EBDD
:1019900017414FEA154714EB0C4441EB1C4125EA73
:1019A000074C02FB07F506FB07F70CFB06F602FBEC
:1019B0000CFC16EB074645EB174516EB0C4645EBC2
:1019C0001C42121951F1000148BF7047B61952412B
:1019D00041EB0101A3F1010370474FEA14454FEABF
:1019E000114724EA054621EA074C05FB07F106FBEF
:1019F00007F70CFB06F24FF0000605FB0CFC12EBA0
:101A0000074241EB174112EB0C4251EB1C4148BF1E
:101A10007047921841EB0101A3F101037047FEE703
:101A2000014800F094B900009C080020014800F033
:101A300067BC0000EC0A0020014800F061BC000017
:101A40002C0A0020014800F05BBC00008C0A00203A
:101A5000704772B6FEE790F82020012A07D0022ACC
:101A600005D0416A41F4802141620120704700683D
:101A700042690A43426100207047F0B590F8205057
:101A80000468A468012D05D0022D03D0416A41F4F9
:101A9000802157E014F0406F01D1E5004FD5C4F329
:101AA00001640125A5401D608D684FF4C0739DB190
:101AB000CE6835434E6845EAC605066803EB041751
:101AC000F5514FF4C275076805EB04150E697E5198
:101AD000097D012905D009E00E88CD6845EA465503
:101AE000EBE701684E5946F480764E511179D5796D
:101AF000567941EA056195792D0445EA0625294381
:101B00004FF4C676056806EB0416A9511178D5780E
:101B100041EA0561957852782D0445EA0222114385
:101B20004FF4C475026805EB04155151006803EBCE
:101B30000411425842F0010242500020F0BD416AB7
:101B400041F4001141620120F0BD000010B590F891
:101B50002020012A07D0022A05D0416A41F48021C1
:101B60004162012010BD3B48D0F8002242F0010242
:101B7000C0F80022D0F8002222F47C52C0F80022E3
:101B8000D0F800224B6A42EA0322C0F800220A7D04
:101B900002F01F0301229A40D0F81C329343C0F890
:101BA0001C32CB69B3B9D0F80C329343C0F80C3275
:101BB0008C894B6864F31F434C6900EBC404C4F880
:101BC00040320C890B6864F31F434C6900EBC4047A
:101BD000C4F84432CB69012B16D1D0F80C32134330
:101BE000C0F80C320C884B6864F31F434C6900EB5F
:101BF000C404C4F840320C89CB6864F31F434C69B9
:101C000000EBC404C4F844328B69002BD0F80432D2
:101C10000ED01343C0F804320B69002BD0F81432F5
:101C200008D01343C0F81432096A012904D008E02F
:101C30009343EFE79343F5E7D0F81C121143C0F844
:101C40001C12D0F8001221F00101C0F8001200208F
:101C500010BD000000640040704770B590F820404F
:101C6000012C05D0022C03D0416A41F4802128E0E8
:101C7000046809B32469A40720D04FF4D874056818
:101C800004EB01142D5915F00405956005682D59D4
:101C90001AD0ED08556005682C5904F00204D46090
:101CA0004FF4DA74056804EB01142E5906F00F06A0
:101CB000082E0CD308250DE0E468DCE7416A41F406
:101CC00000114162012070BD6D0D1560E3E72D59D3
:101CD00005F00F05156105682D59C5F307259561B8
:101CE00005682C59240C54614FF4DC72046802EB33
:101CF0000112A4581C700468A458240A5C7004687B
:101D0000A458240C9C700468A258120EDA704FF488
:101D1000DE72046802EB0112A4581C710468A45816
:101D2000240A5C710468A458240C9C710468A258AD
:101D3000120EDA71006829B1016941F020010161D8
:101D4000002070BDC16841F02001C160F8E72DE9B5
:101D5000F05F0546006800244669D0F80490876863
:101D6000D0F80CB0D0F810A0D0F81880F10748D007
:101D7000F90714D001218160B80703D5284600F087
:101D80005EFA0CE0780702D54FF4006407E03807EC
:101D900002D54FF4805402E0284600F04FFAF805CF
:101DA00016D529684FF480708860B80503D5284699
:101DB00000F047FA0CE0780502D544F4005407E03F
:101DC000380502D544F4804402E0284600F038FA91
:101DD000F80316D529684FF480308860B80303D51E
:101DE000284600F030FA0CE0780302D544F40044B1
:101DF00007E0380302D544F4803402E0284600F0BE
:101E000021FA300707D55FEACB6004D52968102096
:101E100044F40074C86070074FF0080707D55FEA04
:101E20000B7004D52868C760284600F057F9B00742
:101E300006D52868C068800702D0284600F050F90F
:101E4000700607D55FEACA6004D52968102044F4FB
:101E500080640861B00607D55FEA0A7004D5286877
:101E60000761284600F0BAF9F00606D5286800692F
:101E7000800702D0284600F0B2F9B00308D55FEA27
:101E8000C96005D5296810204860284600F0A8F9E7
:101E9000F00307D55FEA097004D528684760284633
:101EA00000F0D2F9300446D55FEA497040D5F0051C
:101EB00004D55FEAC87001D044F00104B00504D530
:101EC0005FEA887001D544F00204700504D55FEA2A
:101ED000487001D544F00404300529D518F0700F7E
:101EE00026D008F07000402815D006DC102809D054
:101EF00020280AD0302816D10AE050280ED06028B9
:101F000011D10EE044F008040DE044F010040AE0A2
:101F100044F0200407E044F0400404E044F080046E
:101F200001E044F480742868816921F070018161C6
:101F3000296804204860002C05D0686A2043686244
:101F40002846FFF789FEBDE8F09F70B5040003D076
:101F500094F8200010B104E0012070BD204600F08C
:101F600081F82068016841F00101016000F012FC75
:101F70000546052604E000F00DFC401B0A2811D898
:101F800020684068C007F6D02068016821F002018F
:101F9000016000F0FFFB05460BE000F0FBFB401B7F
:101FA0000A2806D9606A40F40030606284F8206034
:101FB000D2E7206840688007EFD4207E012820689F
:101FC00001683DD021F080010160607E0128206819
:101FD000016838D021F040010160A07E012820680E
:101FE000016833D021F020010160E07E01282068E3
:101FF00001682ED041F010010160207F0128206887
:10200000016829D021F008010160607F0128206863
:10201000016824D021F004010160D4E902010843E1
:10202000D4E90412114308436168491E084321683A
:10203000C86100206062012084F82000002070BD8B
:1020400041F08001C0E741F04001C5E741F02001C7
:10205000CAE721F01001CFE741F00801D4E741F0D1
:102060000401D9E710B586B0044614216846FEF78E
:10207000DDF917492068884227D1164800210268F7
:1020800042F000720260006800F000700590114894
:102090001038026842F0080202600068022200F074
:1020A000080005900320CDE90210CDE900020920C7
:1020B00004906946084800F06FFA00221146142087
:1020C00000F002FC142000F0F1FB06B010BD00008F
:1020D0000064004040380240000C0240704700009D
:1020E00010B5384B384A0021FFF7B7FD002867D1FB
:1020F0003548344982680978042A19D001293BD02F
:1021000002293DD0032940D0042942D0052945D0D9
:10211000062947D007294AD008294CD009294FD190
:10212000026829482749E038BDE8104002F066B946
:10213000012911D0022911D0032911D0042911D06D
:10214000052911D0062911D0072911D0082911D04D
:10215000092935D14268E4E742680EE0426810E0A0
:10216000426813E0426815E0426818E042681AE0ED
:1021700042681DE042681FE0026812491348D3E735
:10218000026812480F49E030CEE702680D49104856
:10219000CAE702680E480B49E030C5E70268094902
:1021A0000C48C1E702680B480649E030BCE702680A
:1021B00004490948B8E7026807480249E030B3E734
:1021C00010BD00005000002080080020A00000206A
:1021D0006002002020040020E005002070477047C6
:1021E0007047000070B5044690F82000012804D024
:1021F000606A40F40020606218E0022084F8200049
:102200002068016821F00101016000F0C3FA054671
:102210000EE000BF00F0BEFA401B0A2808D9606A31
:1022200040F400306062052084F82000012070BD79
:1022300020684068C007EDD1606270BD704770478C
:10224000704770477047704770472DE9F04104466A
:10225000876D00F09FFA064694F8350000250228A5
:1022600006D08020606584F834500120BDE8F081FC
:102270002068016821F0160101602068416921F0A1
:1022800080014161206C08B9A06C20B12068016810
:1022900021F0080101602068016821F0010101605E
:1022A0000CE000F077FA801B052807D92020606534
:1022B000032084F8350084F83450D7E7206800689C
:1022C000C007EED194F85C103F208840B860012030
:1022D00084F8350084F834500020C7E790F83510B2
:1022E000022903D08021416501207047052180F833
:1022F00035100068016821F001010160002070477D
:102300002DE9F84304464FF00009CDF800906348EA
:102310004FF41651A56D0068B0FBF1F72E6894F8E4
:102320005C10082000FA01F131420FD021680A68E0
:1023300052070BD50A6822F004020A6094F85C1078
:102340008840A860606D40F00100606594F85C1002
:102350004FF0010808FA01F0304208D021684969BD
:10236000090604D5A860606D40F00200606594F82D
:102370005C1004208840304208D021680968890731
:1023800004D5A860606D40F00400606594F85C10AE
:1023900010208840304218D021680968090714D5F8
:1023A000A86020680168490304D50068000308D5C7
:1023B000A16C07E00168C90503D4016821F0080198
:1023C0000160216C09B12046884794F85C102020F8
:1023D0008840304231D021680968C9062DD5A860EF
:1023E00094F8350005282068016806D0490347D5D0
:1023F000006800031DD4616C1CE021F0160101602F
:102400002068416921F080014161206C08B9A06C0D
:1024100020B12068016821F00801016094F85C1087
:102420003F208840A86084F8358084F83490216D7E
:102430001FE0E16B09B120468847606D00282BD072
:10244000606DC00714D0052084F83500206801684D
:1024500021F0010101600098401C0090B84203D8AF
:1024600020680068C007F6D184F8358084F834907D
:10247000E16C002910D001B02046BDE8F0430847C8
:102480000168C905D5D4016821F01001016084F804
:10249000358084F83490CCE7BDE8F88364000020F0
:1024A0002DE9F041044600F075F906465CB10220C2
:1024B00084F83500002584F834502068016821F044
:1024C000010101600DE00120BDE8F08100F062F93A
:1024D000801B052805D920206065032084F835007D
:1024E000F2E720680068C007F0D122681168204830
:1024F0000140D4E901031843D4E9033633431843B8
:1025000063691843A3691843E3691843236A1843AE
:102510000843616A042903D1D4E90B131943084322
:10252000106020684069666A20F0070130460E435B
:10253000012704280CD1A06A0643E06A40B1204676
:1025400002F01AF920B14020606584F83570BAE7CE
:1025500020684661204602F039F994F85C203F215A
:1025600091408160656584F835700020ACE700001B
:102570003F8010F070B5044600F00CF90546601C71
:1025800002D004480078044400F004F9401BA04243
:10259000FAD370BD580000202DE9F84FDFF8BCA138
:1025A0000022012503264FF00F090AF1040BAAF1BE
:1025B000040E00BF0B6805FA02F42340A34270D159
:1025C0000F7907F00307012F01D0022F16D187687A
:1025D0004FEA420806FA08FC27EA0C07D1F80CC0BB
:1025E0000CFA08FC4CEA070CC0F808C04768A7437F
:1025F0000C79C4F3001494403C4344600C79E443E8
:10260000A4070AD0C4684FEA420C06FA0CF7BC4390
:102610008F6807FA0CF72743C7600C7904F00304AE
:10262000022C12D1D40800EB840CDCF820405707B0
:10263000FF0E09FA07F824EA0804D1F8108008FA16
:1026400007F848EA0408CCF8208004684FEA420CF6
:1026500006FA0CF7BC430F7907F0030707FA0CF7EB
:10266000274307604C6814F4403F70D03C4C276807
:1026700047F480472760246822F0030704F480446D
:102680000094384C07EB040CDCF8084897074FEA35
:10269000177809FA08F7BC43334FB84202D1002734
:1026A00024E054E0314FB84201D101271EE0304F01
:1026B000B84201D1022719E02E4FB84201D10327B9
:1026C00014E02D4FB84201D104270FE02B4FB84240
:1026D00001D105270AE02A4FB84201D1062705E0BB
:1026E000284FB84201D1072700E0082707FA08F76A
:1026F0002743CCF80878DAF800405746D1F804C0F0
:102700009C435FEACC2C00D51C433C60DBF80040C6
:102710005F46D1F804C09C435FEA8C2C00D51C4373
:102720003C60DEF800407746D1F804C09C435FEA85
:102730008C3C00D51C433C60084F083F3C68D1F8F6
:1027400004C09C435FEACC3C00D51C433C60521C57
:10275000102AFFF42FAFBDE8F88F0000083C0140BD
:1027600044380240003001400000024000040240B2
:1027700000080240000C0240001002400014024019
:1027800000180240001C02400AB181617047090430
:10279000FBE70000014880687047000058000020F7
:1027A0000248816802781144816070475800002017
:1027B0000B4810B5016841F400710160016841F4F3
:1027C00080610160016841F480710160032000F0C4
:1027D0009BF80F2000F006F800F050F8002010BD24
:1027E000003C024030B505461F4887B00024016810
:1027F00041F020010160006806A900F0200000906F
:1028000001A800F02DF90498A8B100F049F94000A2
:102810001649174AB0FBF1F11648491E026040F212
:10282000E732C0E90324C0E90114846100F0B4FB7D
:10283000040003D015E000F033F9E9E70D4800F09B
:102840004FFC04000DD1372000F030F8102D07D2D6
:1028500000222946372000F037F80748056000E0DD
:10286000012407B0204630BD4038024040420F00EE
:10287000001400404C0B00205C0000200A4808B502
:10288000016841F480410160006800F480400090DC
:102890000548001F016841F080510160006800F0A8
:1028A0008050009008BD000044380240002809DB39
:1028B00000F01F02012191404009800000F1E0205A
:1028C000C0F8001170470000F0B40E4B1B680C46B6
:1028D000C3F30223C3F10705042D00D90425191DF4
:1028E000072901D2002300E0DB1E012606FA05F1CC
:1028F000491E214099409E40761E16403143F0BC4F
:1029000002F07FB90CED00E0064900F0070208680C
:102910004FF6FF03184040EA0220034A10430860C4
:10292000704700000CED00E00000FA052DE9F047CB
:102930000E46050065D0DFF81481D8F80000F7B224
:1029400000F00700B04207D288F80070D8F8000005
:1029500000F00700B04254D128683D4C810712D5E1
:10296000400703D5206840F4E05020602878000735
:1029700003D5206840F4604020602068A96820F0FA
:10298000F000084320602878C0072DD030496868DF
:102990000839012812D0022813D0032811D0096861
:1029A000890700292DDA216821F003010143216004
:1029B000FFF7F0FE814641F2883A0EE0096889038C
:1029C000EFE709688901ECE7FFF7E4FEA0EB0901F6
:1029D000514502D90320BDE8F0872068696800F0FE
:1029E0000C00B0EB810FEFD1D8F80010404601F099
:1029F0000701B14207D90770006800F00700B04234
:102A000001D00120E7E72878400705D52068E9686C
:102A100020F4E050084320602878000706D520689D
:102A2000296920F4604040EAC100206000F058F8B5
:102A30002168084AC1F30311515CC8400649086087
:102A400006480068FFF7CEFE0020C4E7003C0240C5
:102A500008380240E6560008640000205C000020B0
:102A60000F2202600C4A136803F0030343601368EB
:102A700003F0F0038360136803F4E053C36012684B
:102A80004FF4E05303EAD20202610448006800F008
:102A9000070008607047000008380240003C024010
:102AA0000448054900680968044AC1F38221515C61
:102AB000C84070476400002008380240F6560008FD
:102AC0000448054900680968044AC1F34231515C71
:102AD000C84070476400002008380240F6560008DD
:102AE000154810B5006810F00C02144813D01449B2
:102AF000042A0FD0082A0ED10F4C241F2268236805
:102B000002F03F025B0207D52068C0F38810A0FBEB
:102B1000010106E0084610BD2168C1F38811A1FB40
:102B200000010023FDF7F8FB2168C1F30141491CB6
:102B30004900B0FBF1F010BD083802400024F40059
:102B4000001BB7002DE9F84F04006ED02078DFF8A5
:102B50004C93C007A9F104054AD009F104000168AB
:102B6000C1F38101012908D00068C0F38100022867
:102B70000AD1D9F80000400206D52868800337D56D
:102B800060680028E1D033E06068B0F5803F10D085
:102B9000B0F5A02F286810D020F480302860286875
:102BA00020F4802028606068A8B1FFF7F3FD064696
:102BB0000DE0286840F48030F4E740F4802028607D
:102BC000F7E700BFFFF7E6FD801B642873D828688D
:102BD0008003F7D50CE0FFF7DDFD064605E000BFFA
:102BE000FFF7D8FD801B6428F0D828688003F7D44D
:102BF0002078DFF8AC8280074FF0000A3ED5A74866
:102C0000001D016811F00C0F08D00068C0F38100AE
:102C100002280BD1D9F80000400207D428688007A9
:102C200016D5E068012800D112E033E1E068B8B1C0
:102C30000120C8F80000FFF7ADFD064605E000BF23
:102C4000FFF7A8FD801B0228C0D828688007F7D5A9
:102C50002868216920F0F80040EAC10028600DE0F2
:102C6000C8F800A0FFF796FD064604E0FFF792FDC6
:102C7000801B02281FD828688007F7D42078000717
:102C800022D5864F87486169703771B10121016093
:102C9000FFF780FD064604E0FFF77CFD801B02285D
:102CA00009D838688007F7D50EE0C0F800A0FFF714
:102CB00071FD064605E082E0FFF76CFD801B0228EF
:102CC0007DD838688007F7D42078400768D5DFF8CA
:102CD000CCB100270BF13C0BDBF80000C0000BD49B
:102CE000DBF8001041F08051CBF80010DBF8000059
:102CF000012700F0805000906B4E3068C00510D462
:102D0000306840F480703060FFF744FD009005E0CB
:102D1000FFF740FD0099401A022850D83068C005DE
:102D2000F6D55E4EA0686C3601280FD005283068B5
:102D300010D020F001003060306820F004003060D6
:102D4000A068B8B1FFF726FD00900FE0306840F0B2
:102D50000100F4E740F004003060F7E7FFF71AFDE8
:102D60000099411A41F28830814266D83068800764
:102D7000F4D50EE0FFF70EFD009007E0FFF70AFD27
:102D80000099411A41F28830814256D83068800754
:102D9000F4D42FB1DBF8001021F08051CBF80010F3
:102DA000A069C8B33D49091D0968C1F38101022921
:102DB0004AD00228504607D0C8F8600000E03CE046
:102DC000FFF7E8FC04463BE04746C8F86000FFF721
:102DD000E1FC064605E000BFFFF7DCFC801B022893
:102DE0002BD828688001F7D4D4E907010843A16AE9
:102DF0002E4A490802EB0141626A41EA8211084306
:102E000094F82C1040EA0161C9F8001001203866DE
:102E1000FFF7C0FC044606E03EE000BFFFF7BAFC47
:102E2000001B022809D828688001F7D534E000BFCC
:102E3000FFF7B0FC001B022802D90320BDE8F88F81
:102E400028688001F4D427E00128F7D0D9F80000E1
:102E5000E26900F4800191421CD1226A00F03F0136
:102E6000914217D147F6C071626A0140B1EB821FEF
:102E700010D1A26A4FF0FF3300F4403103EB52024D
:102E8000B1EB024F06D194F82C1000F07060B0EB5B
:102E9000016F01D00120D1E70020CFE704380240C4
:102EA00000004742800E4742007000400000FFFFD4
:102EB0007047704710B590F83C20012A22D00122BB
:102EC00080F83C20CA688C6822F4407222434C6827
:102ED00022F4806222430C6822F4006222430C69CF
:102EE00022F4805222434C6922F400522243C969E1
:102EF000002322F480420A4301684A6480F83C308F
:102F0000002010BD022010BD70B590F83C20012AB1
:102F100032D0012480F83C40022280F83D20036832
:102F20005A689D6822F070060A6832435A60134B53
:102F300002689A4214D0B2F1804F11D0104B9A42DD
:102F40000ED0104B9A420BD00F4B9A4208D00F4B29
:102F50009A4205D00E4B9A4202D00E4B9A4204D1AF
:102F6000496825F080031943916080F83D400021B5
:102F700080F83C10084670BD022070BD0000014082
:102F80000004004000080040000C00400004014024
:102F9000004001400018004010B5040003D094F830
:102FA0003D0010B107E0012010BD002084F83C0076
:102FB000204600F01FF8022084F83D00211D206803
:102FC00001F09AF8012084F8460084F83E0084F865
:102FD0003F0084F8400084F8410084F8420084F8FF
:102FE000430084F8440084F8450084F83D00002044
:102FF00010BD000008B5184A01681848914208D170
:10300000016841F001010160006800F001000090DA
:1030100008BD134A914207D1016841F002010160E5
:10302000006800F002000BE00E488142F0D10B482E
:10303000001F016841F040010160006800F040009D
:103040000022009011462B20FFF73EFCBDE808400F
:103050002B20FFF72BBC0000000001404438024049
:10306000000401400018004090F83D10012901D0F3
:1030700001207047022180F83D1000681149884204
:1030800014D0B0F1804F11D00F4988420ED00F49B3
:1030900088420BD00E49884208D00E49884205D09C
:1030A0000D49884202D00D49884204D1816801F05F
:1030B0000701062903D0016841F0010101600020E9
:1030C000704700000000014000040040000800407C
:1030D000000C004000040140004001400018004086
:1030E00090F83D10012901D001207047022180F89D
:1030F0003D100168CA6842F00102CA6000681149C7
:10310000884214D0B0F1804F11D00F4988420ED0C0
:103110000E4988420BD00E49884208D00D4988429A
:1031200005D00D49884202D00C49884204D18168FB
:1031300001F00701062903D0016841F00101016097
:1031400000207047000001400004004000080040DB
:10315000000C004000040140004001400018004005
:1031600070B5044690F83C000025012817D00126D0
:1031700084F83C60022084F83D002068826822F0D8
:10318000770222F47F4282600868502838D00DDC34
:1031900020284FD005DC90B3102811D14AE002203E
:1031A00070BD302846D040280AD13BE060282FD09F
:1031B00070280DD0B0F5805F03D0B0F5005F12D05D
:1031C000012584F83D60002084F83C00284670BD4D
:1031D000CB68D1E90121206801F007F820688168F7
:1031E00041F0770109E0CB68D1E90121206800F0C6
:1031F000FCFF2068816841F480418160E1E719E0CB
:10320000CA684968206801F089FB5021206806E0FF
:10321000CA684968206801F092FB6021206801F0CB
:1032200075FBCEE7CA684968206801F077FB40214A
:103230002068F4E7226801461046F0E770472DE960
:10324000F04104460068C66805694FF00007A90709
:1032500013D5B10711D5F91E01610120207720682F
:1032600080698007204602D0FFF7E8FF04E000F005
:10327000D7F8204600F069F92777680716D5700758
:1032800014D521686FF004000861022020772068BF
:10329000806910F4407F204602D0FFF7CFFF04E0A2
:1032A00000F0BEF8204600F050F92777280715D522
:1032B000300713D521686FF00800086104202077DB
:1032C0002068C0698007204602D0FFF7B7FF04E0FE
:1032D00000F0A6F8204600F038F92777E80616D562
:1032E000F00614D521686FF01000086108202077DF
:1032F0002068C06910F4407F204602D0FFF79EFF8F
:1033000004E000F08DF8204600F01FF92777E80769
:1033100008D0F00706D021686FF001000861204650
:1033200000F078F9280608D5300606D521686FF038
:10333000800008612046FFF7BBFD680608D57006CF
:1033400006D521686FF040000861204600F0F6F9CC
:10335000A8060AD5B00608D521686FF020000861DC
:103360002046BDE8F041FFF7A4BDBDE8F0810000B4
:1033700070B586B0044614216846FDF757F8224A16
:103380002168002421480225914212D1016841F0B0
:10339000100101600068694600F0100005904FF4CC
:1033A000D4400090CDE901540120CDE903401848F4
:1033B00025E0184A914224D1016841F480710160EE
:1033C000016801F480710591016841F00401016018
:1033D0000068032600F004000590C0200090CDE9AD
:1033E0000154CDE9034669460B48FFF7D5F8402064
:1033F0000090CDE90154CDE9034669460748FFF73F
:10340000CBF806B070BD000000000140303802402B
:103410000010024000040140002002400008024069
:10342000704770B5044690F83C0000260D46012810
:103430000FD0012084F83C006AB1042A1DD0082A6C
:103440002FD00C2A3FD00126002084F83C003046C3
:1034500070BD022070BD206801F0CCF92068816940
:1034600041F0080181612068816921F004018161D6
:10347000206881692A69114311E0206800F0C0FECC
:103480002068816941F4006181612068816921F4CB
:1034900080618161206881692A6941EA0221816134
:1034A000D2E7206801F0D6F92068C16941F008012F
:1034B000C1612068C16921F00401C1612068C1694E
:1034C0002A69114311E0206801F0F8F92068C16908
:1034D00041F40061C1612068C16921F48061C1616A
:1034E0002068C1692A6941EA0221C161ACE710B5CF
:1034F000040003D094F83D0010B107E0012010BD96
:10350000002084F83C00204600F01EF8022084F8D9
:103510003D00211D206800F0EFFD012084F84600E9
:1035200084F83E0084F83F0084F8400084F84100AD
:1035300084F8420084F8430084F8440084F845008D
:1035400084F83D00002010BD7047704710B5044658
:10355000022249B104290ED0082913D094F8410061
:10356000012816D0012010BD94F83E000128F9D1A1
:1035700084F83E200FE094F83F000128F2D184F84F
:103580003F2008E094F840000128EBD184F8402067
:1035900001E084F841200122206800F019FE16495C
:1035A0002068164A884201D0904203D1436C43F40C
:1035B000004343642068884213D0B0F1804F10D09C
:1035C0000F4988420DD00F4988420AD00E498842DF
:1035D00007D0904205D00D49884202D00C4988425C
:1035E00004D1816801F00701062903D0016841F088
:1035F00001010160002010BD0000014000040140F5
:103600000004004000080040000C00400040014061
:103610000018004070B505463E482DED048B8542EC
:103620006BD13D4C3D4994ED000A10EE100A8842E2
:1036300005DDDFED3B0A30EE600A84ED000ADFEDC8
:10364000390ADFED398A30EE200A84ED000A30EEC7
:10365000280A01F011FB9FED358A20EE080A84ED5F
:10366000010A94ED000A01F007FB20EE080A9FED25
:10367000309A84ED020A94ED000A30EE090A01F056
:10368000FBFA20EE080A84ED030A94ED000A01F02B
:10369000F3FA20EE080A84ED040A94ED000A30EEF5
:1036A000280A01F0E9FA20EE080A84ED050A94EDF3
:1036B000000A30EE280A01F0DFFADFED1E8A20EE64
:1036C000280A84ED060A94ED000A01F0D5FA20EEEE
:1036D000280A84ED070A94ED000A30EE090A01F089
:1036E000CBFA20EE080A84ED080A94ED000A01F0F6
:1036F000C3FA20EE080A84ED090A0F4928688842B7
:1037000005D1BDEC048BBDE87040FFF749B8BDECB6
:10371000048B70BD5409002000000020DB0FC9405D
:10372000DB0FC9406F12833ADB0F493FDB0FC93F04
:10373000DB0F49BF3B46F13E001400407047704725
:1037400070470000F8B5016804460868CA684B690C
:1037500010F00F0F4FF0000559D003F0010602F4EE
:103760009077374365D0C10705D0D10503D5616C8B
:1037700041F001016164410705D5D90703D0616CAF
:1037800041F002016164810705D5D90703D0616C5E
:1037900041F004016164010707D502F020013143C3
:1037A00003D0616C41F008016164616C00293AD07A
:1037B000800604D5900602D5204601F059F920680C
:1037C0004069616CC0F38010090700D460B32046E3
:1037D00001F0AFF920684069400621D52068143017
:1037E00050E8001F21F0400140E80012002AF5D106
:1037F000E06BA8B16E490165E06BFEF76FFD002834
:1038000011D0E06B016D01B0BDE8F04008478306C0
:103810000FD593060DD52046BDE8F84001F028B934
:103820002046FFF78DFFF8BD2046FFF789FF65644E
:10383000F8BD266B2023012E7DD1C6067BD5D6068A
:1038400079D508684868009048694FF0020640063C
:1038500041D5E16B086840680004000CE8D0A28DF7
:103860008242E5D9E085C869B0F5807F2DD0206817
:103870000C3050E8001F21F4807140E80012002A4B
:10388000F5D12068143050E8001F21F0010140E814
:103890000012002AF5D12068143050E8001F21F0F2
:1038A000400140E80012002AF5D184F84230256337
:1038B00020680C3050E8001F21F0100140E8001291
:1038C000002AF5D1E06BFEF7C0FC6663A08DE18DA8
:1038D000401A81B22AE0A08DE18D401A81B2E08DBC
:1038E0000028A5D00029A3D022680C3252E8000F8E
:1038F00020F4907042E80007002FF5D120681430C2
:1039000050E8002F22F0010240E80027002FF5D1F7
:1039100084F84230256320680C3050E8002F22F0F4
:10392000100240E80023002BF5D166632046FFF724
:1039300006FFF8BDFFE705062BD5150629D594F837
:1039400041002128F5D1A068B0F5805F01D1206940
:10395000B0B1206A411C2162216800784860E08C87
:10396000401E0004000CE084E3D12068C16821F00F
:103970008001C1602068C16841F04001C160D8E7A2
:10398000206A0088C0F308004860206A801C20621A
:10399000E5E74006CDD55006CBD5CA68204622F0D3
:1039A0004002CA6084F8413000F057F9C1E70000D6
:1039B000814B000870B5040004D094F84100002544
:1039C00010B106E0012070BD84F84050204600F0A0
:1039D00023F8242084F841002068C16821F40051B4
:1039E000C160204600F0BEFF2068016921F49041CB
:1039F00001612068416921F02A0141612068C168A4
:103A000041F40051C1606564202084F8410084F8CD
:103A100042006563002070BD2DE9F04786B0064680
:103A200014216846FCF702FD5C485B4B32685B4939
:103A300014380225032700244FF4806A9A424BD1A0
:103A40000A6842F010020A60096801F0100105914D
:103A5000016841F002010160016801F00201059175
:103A6000016841F001010160006802AA00F0010054
:103A700005908020CDE900054FF0070882E890010D
:103A800069464748FEF788FD2802CDE9000502AAED
:103A9000694682E890014348FEF77EFD434D424867
:103AA00028604FF00060C5E90104C5E9034A6C6174
:103AB0003804AC61C5E9074028466C62FEF7F0FCAB
:103AC00008B1FDF7C6FFF563002211462520AE635D
:103AD000FEF7FAFE25205AE0354B9A4259D10A6882
:103AE00042F020020A60096801F020010591016896
:103AF00041F0400101600068029400F04000059030
:103B00004FF48440CDE900050820CDE903706946F3
:103B10002848FEF741FD254D2348603560304FF0C1
:103B20002069E5E802094020574691C54FF48078A6
:103B300045F8144905F118024FF4803A82E810055F
:103B40001A486C626030FEF7ABFC08B1FDF781FFEC
:103B5000B563AE63154D1448C03518382860C5E903
:103B60000194C5E9034705F118016C6181E810056E
:103B700028466C62FEF794FC08B1FDF76AFFF56316
:103B8000002211464720AE63FEF79EFE4720FEF757
:103B90008DFE06B0BDE8F0870010014044380240B9
:103BA0000004024000000240406402402C0A002051
:103BB000001401400018024070472DE9F843044604
:103BC00090F84100984616460D46202802D0022063
:103BD000BDE8F88385B17EB100206064212084F8BF
:103BE0004100FEF7D7FDA6848146E684A068202721
:103BF000B0F5805F02D003E00120E9E7206910B151
:103C00002E4600250EE000260CE08021204600F024
:103C1000BFFFA8B9C6B116F8010B21684860E08C57
:103C2000401EE084E08C4B464FF00002CDF800804F
:103C30000028EAD14FF04001204600F0A9FF40B132
:103C400084F841700320C3E735F8020BC0F3080085
:103C5000E3E784F841700020BAE77047FEE7000010
:103C60000F4810B50D4901600321416000214FF458
:103C700010228160C0E903124FF400124261017604
:103C800041768176C17601774177FEF75EF90028AB
:103C900003D0BDE81040FDF7DCBE10BD006400405D
:103CA0009C080020114808B5016841F480010160BA
:103CB0000068002200F48000009011463920FEF7D1
:103CC00003FE3920FEF7F2FD002211463A20FEF7EE
:103CD000FBFD3A20FEF7EAFD002211464520FEF7E3
:103CE000F3FDBDE808404520FEF7E0BD3038024056
:103CF0002DE9F04186B014216846FCF797FB3F4858
:103D00000025016841F040010160016801F04001B7
:103D10000591016841F001010160016801F00101B4
:103D20000591016841F002010160016801F00201A2
:103D30000591016841F008010160016801F0080186
:103D40000591016841F480710160016801F480719E
:103D50000591016841F080010160016801F0800176
:103D60000591016841F004010160016801F004015E
:103D70000591016841F0100101600068204E00F0DB
:103D800010004FF4E0540590002221463046FEF723
:103D9000FBFC1C4F012210213846FEF7F5FCDFF832
:103DA0006880012211464046FEF7EEFC0094012493
:103DB000CDE90145694630460395FEF7EDFB10203D
:103DC000CDE90004022569463846CDE90245FEF7F3
:103DD000E3FB302000904FF48810CDE901046946E0
:103DE0000A48FEF7D9FB0094694640460194CDE9A4
:103DF0000245FEF7D1FB06B0BDE8F0813038024045
:103E0000001C024000000240000402400008024082
:103E10001FB5002110480091019102910D4A0391B4
:103E200002605322C0E9012140F2F312C0E90321EC
:103E30008161FFF7B1F808B1FDF70BFE4FF4805038
:103E4000009069460448FFF78BF9002801D0FDF780
:103E500000FE1FBD001800405409002010B596B0A8
:103E600000240F9410941194129413941C2168460A
:103E70001494FCF7DBFA202107A8FCF7D7FA3548A1
:103E800033490160A721C0E9011444F61F61C0E96C
:103E9000031444618461FFF77FF808B1FDF7D9FD91
:103EA0004FF480500F900FA92A48FFF759F908B135
:103EB000FDF7CFFD2748FFF71AFB08B1FDF7C9FD55
:103EC000139413A923481494FFF71EF808B1FDF7C3
:103ED000C0FD602000904FF4FA60CDE90104039426
:103EE00004940594002269461A480694FFF799FA4B
:103EF00008B1FDF7AEFD042269461648FFF791FAB6
:103F000008B1FDF7A6FD082269461248FFF789FAB5
:103F100008B1FDF79EFD0C2269460E48FFF781FAB5
:103F200008B1FDF796FD0794089409944FF40050EA
:103F30000A94CDE90B4007A906480E94FEF7BAFF94
:103F400008B1FDF786FD0348FFF712FA16B010BD61
:103F500000000140C408002010B596B000240F9462
:103F600010941194129413941C2168461494FCF735
:103F70005DFA202107A8FCF759FA31482F49016062
:103F8000A721C0E9011444F61F61C0E9031444618C
:103F90008461FFF701F808B1FDF75BFD4FF4805035
:103FA0000F900FA92648FFF7DBF808B1FDF751FD88
:103FB0002348FFF79CFA08B1FDF74BFD139413A9B2
:103FC0001F481494FEF7A0FF08B1FDF742FD6020E2
:103FD00000904FF4FA60CDE9010403940494059431
:103FE0000022694616480694FFF71BFA08B1FDF750
:103FF00030FD042269461248FFF713FA08B1FDF7B5
:1040000028FD082269460E48FFF70BFA08B1FDF7B4
:1040100020FD0794089409944FF400500A94CDE9C8
:104020000B4007A906480E94FEF744FF08B1FDF7C0
:1040300010FD0348FFF79CF916B010BD00040140C5
:104040000C0900200C4810B50A4901604FF41651C4
:104050004160002181600C22C160C0E904128161CD
:10406000C161FFF7A7FC002803D0BDE81040FDF7B1
:10407000F0BC10BD001001409C0900200C4810B598
:104080000A4901604FF4E1314160002181600C2256
:10409000C160C0E904128161C161FFF78BFC002897
:1040A00003D0BDE81040FDF7D4BC10BD00140140A2
:1040B000E4090020FEE7FEE7704770477047000004
:1040C0000248016841F470010160704788ED00E02A
:1040D0000148FFF7B4B800004C0B002010B50448AD
:1040E000FFF7ADF8BDE810400248FFF7A8B80000A0
:1040F0000C09002054090020F0B50268294C2A4D13
:104100002A4E2B4F2B4B4FF0804CA04209D06045DC
:1041100007D0A84205D0B04203D0B84201D098429F
:1041200004D122F0700E4A6842EA0E02A0421BD06F
:10413000604519D0A84217D0B04215D0B84213D06C
:10414000984211D01C4DA8420ED01C4DA8420BD055
:104150001B4DA84208D01B4DA84205D01A4DA842BD
:1041600002D01A4DA84203D122F44075CA682A43EE
:104170004D6922F080022A4302608A68C2620A689E
:104180008262A04201D0984201D1096901630121F4
:1041900041610169C90703D0016921F00101016191
:1041A000F0BD000000000140000400400008004095
:1041B000000C004000040140004001400044014068
:1041C0000048014000180040001C00400020004052
:1041D00010B501F01F030121046A99408C43046269
:1041E000016A9A401143016210BD10B5846842EA29
:1041F000032224F47F440A432243826010BD00005E
:10420000F0B5026A036A23F010030362436884690D
:104210000D6824F4E64444EA05248D6822F0200267
:1042200042EA05120F4D104EA84201D0B04206D10D
:10423000CF6822F0800242EA071222F04002A84230
:1042400001D0B04207D14D6923F4406343EA8503AE
:104250008D6943EA85034360846149688163026232
:10426000F0BD000000000140000401400148FFF7DC
:1042700069BA00009C0900200148FFF763BA0000FA
:10428000E4090020FEE771EE601AB4EEC10AF1EE17
:1042900010FA02DDB0EE410A08E0B0EE601AB4EEAA
:1042A000C10AF1EE10FA01D2B0EE600A012181409C
:1042B00070EE600A491E00EE101AB8EEC00A20EE39
:1042C000800AC0EE210ABDEEE00A10EE100A704727
:1042D0000FB40B4870B5094C05AA251F226004993C
:1042E000FCF792F882B22A800020206064230449FF
:1042F0000448FFF762FC70BC5DF814FB70000020FE
:10430000940B0020E409002001228A40521E104034
:1043100030EEC01A00EE900AF8EE600A21EE201A84
:1043200000EE902AF8EE601AC1EE210A30EE800A03
:104330007047000030B593B030216846FCF776F83E
:1043400014210CA8FCF772F81D480025016841F003
:1043500080510160006800F0805011901948016898
:1043600041F4804101600068022400F48040119013
:1043700001200090000401908001CDE90640062054
:104380000890A820CDE9090404200B906846FEF7A8
:10439000D9FB08B172B6FEE70CA90F2081E8310005
:1043A0004FF4A0500F904FF48050109005210CA8AE
:1043B000FEF7BCFA002801D072B6FEE713B030BD9C
:1043C0004038024000700040014600204A0400D5F9
:1043D00010200A0601D540F020000A0701D540F060
:1043E00008004A0701D540F001008A0701D540F0D6
:1043F0000200C90701D040F00400704738B50446F8
:10440000D0B20B46FD2804D01868A0605868E06060
:1044100038BDD87838B9187928B9587918B9987941
:1044200008B9D87990B3B3F80100102140BAF2EE80
:10443000090ABAEE090AFFF767FF84ED140AD87873
:104440001979000140EA11100C21DFED170A9FEDE8
:10445000170AFFF759FF84ED150A98880C2140BA16
:10446000F3EE010ABBEE010AFFF74EFF84ED160AD8
:10447000D88840BA00F0A5FF9FED0D1B53EC112B1F
:1044800000F0B2FF00F06CFFE06538BDFFE70020F0
:10449000ADF80000B1F80100ADF80000FFF794FF9F
:1044A00084F84400F1E7000000003042000030C210
:1044B0009A9999999999B93F00B589B000210091CD
:1044C00001910078029008200690FF208DF80000EE
:1044D0008DF801008DF804008DF802008DF80500BC
:1044E0008DF803008DF80600FC2004918DF807007C
:1044F000034B6A4602A90348FDF7BFFA09B000BDA5
:10450000680000209C08002000B589B000210091BF
:1045100001910078029004910820CDE90510B0EED9
:10452000414AF0EE604AF0EE613AF0EE402A102087
:10453000B2EE091AFAEE090AFFF7A5FE000A8DF895
:1045400000001020B2EE091AFAEE090AB0EE620A73
:10455000FFF799FEDFED362A9FED363A8DF8010020
:104560000C20B0EE621AF0EE430AB0EE640AFFF7D8
:104570008AFE00098DF802000C20B0EE621AF0EEFF
:10458000430AB0EE640AFFF77EFEDFED2B2A9FEDB3
:104590002B3A02010C20B0EE621AF0EE430AB0EEA4
:1045A000440AFFF770FE42EA20208DF803000C2039
:1045B000B0EE621AF0EE430AB0EE440AFFF763FE73
:1045C0008DF804000C20B1EE041AF0EE430AB0EEB0
:1045D000630AFFF758FE00098DF805000C20B1EEC4
:1045E000041AF0EE430AB0EE630AFFF74CFE020134
:1045F0000C20B3EE011AFBEE010AB0EE420AFFF7FF
:1046000042FE42EA20208DF806000C20B3EE011A8B
:10461000FBEE010AB0EE420AFFF735FE8DF8070007
:10462000074B6A4602A90748FDF727FA09B000BD03
:1046300000003042000030C20000FA4300000000D9
:10464000680000209C08002000B589B0002200927C
:1046500001920078029004920820CDE90520FF2005
:104660008DF800008DF804008DF801008DF805002C
:104670008DF802008DF803008DF80610FC208DF8EF
:104680000700044B6A4602A90348FDF7F6F909B092
:1046900000BD0000680000209C08002030B589B0F3
:1046A0000023009304220193CDE9042308230693F9
:1046B0000478008A4FF0C05545EA002004430120E9
:1046C0008DF8000002208DF8010003208DF8020013
:1046D00005208DF8040006208DF805008DF80610E1
:1046E0008DF803208DF807300394044B6A4602A925
:1046F0000348FDF7C2F909B030BD00006800002092
:104700009C08002010B50C4613460749643000F0A1
:104710000DF800F8644DFD2101820021816180F8CF
:10472000453080F8461010BDFE5600080A88028009
:104730004A8802818A880282CA8802830A8902849E
:104740004A8902858A890286CA8902870A8AA0F86C
:1047500040204A8AA0F848208A8AA0F85020CA8AB5
:10476000A0F858200A8BA0F860204A8BA0F8682097
:10477000898BA0F87010704710B5014600208B6936
:104780008A6A4FF0C07453B1B3F5005F15D072B1AF
:10479000012A0CD0022A0AD0032A09D104E01AB156
:1047A000012A06D0022A03D1C96AC90100D5012015
:1047B00010BDC96AA142FAD010BD002AF7D0012A63
:1047C000F2D0022AF3D0032AF3D010BD01681823D7
:1047D000CAB2103AB2FBF3F2054B6FF30901032A98
:1047E0009B5CC36500D9091D8165084670470000C0
:1047F000DE560008F0B5036A026A22F00102026286
:1048000042688469124E24F073050C682C4323F02F
:1048100002058B682B430D4DA84201D0B04205D153
:1048200023F00807CB683B4323F00403A84201D0E0
:10483000B04205D14D6922F4407215438A692A437A
:1048400042608461496841630362F0BD0000014039
:1048500000040140F0B5026A036A23F48073036226
:104860004368C46922F4007224F073050C68124E88
:104870002C438D6842EA05220E4DA84201D0B04279
:1048800006D1CF6822F4006242EA072222F4806255
:10489000A84201D0B04207D14D6923F4405343EA06
:1048A00005138D6943EA05134360C4614968C16318
:1048B0000262F0BD000001400004014030B5046A0E
:1048C000026A22F4805202624268C3690D6823F4CE
:1048D000E64343EA05238D6824F4005444EA053492
:1048E000084DA84202D0084DA84204D14D6922F4D7
:1048F000804242EA85124260C361496801640462F1
:1049000030BD00000000014000040140826822F038
:1049100070020A4342F007018160704710B5036AD4
:10492000046A24F001040462846924F0F00444EA77
:10493000021423F00A020A438461026210BD10B51A
:10494000036A046A24F010040462846923F0A0035B
:1049500024F4704444EA023243EA011182610162A4
:1049600010BD000070B5044600680169E26821F4DA
:104970004051114301612169A068E26908436169FE
:10498000114308432168CA6849F20C639A43024301
:10499000CA6020684169A26921F4407111434161F4
:1049A00031492068884202D03049884202D1FEF75E
:1049B00087F801E0FEF774F8E26900231921642505
:1049C0003226B2F5004F626828D0A0FB0101930F98
:1049D0009200FBF7A1FC0146B0FBF5F06FF0180266
:1049E000504301EB800006EB0010B0FBF5F000F047
:1049F000F002B1FBF5F002EB0012B1FBF5F06FF045
:104A00001803584301EB800006EB0010B0FBF5F0F3
:104A100000F00F0021681044886070BDA0FB010108
:104A200092185B41FBF778FC0146B0FBF5F0020100
:104A3000B1FBF5F06FF01803584301EB800006EB73
:104A4000C000B0FBF5F000F0F80002EB4002B1FB53
:104A5000F5F0584301EB800006EBC000B0FBF5F029
:104A600000F00700D6E700000010014000140140EC
:104A700008B590F84210222901D0022008BD8268B2
:104A80004FF480539A4201D1016921B1816A9A425F
:104A90001BD04AB10AE00268816A5268C2F3080278
:104AA0000A80816A891C08E0026972B10268526852
:104AB00002F07F020A70816A491C8162C18D491E21
:104AC0000904090CC18503D01BE002685268F1E7B4
:104AD0000168CA6822F02002CA600168CA6822F42C
:104AE0008072CA6001684A6922F001024A6120218D
:104AF00080F8421000214163026B012A03D0FFF7C6
:104B00005BF8002008BD016301680C3151E8002FFB
:104B100022F0100241E80023002BF5D101680A6859
:104B2000D20602D50A6849680091818DFEF707FE1A
:104B3000E7E701680C3151E8002F22F4907241E858
:104B40000023002BF5D10168143151E8002F22F029
:104B5000010241E80023002BF5D1016B012909D1A5
:104B600001680C3151E8002F22F0100241E80023C7
:104B7000002BF5D1202180F84210002101637047FD
:104B800010B5806B0021C185C184FEF7D9FD10BD31
:104B90002DE9F843984617460D460446089E24E042
:104BA000701C22D0FDF7F6FDA0EB0800B0421AD829
:104BB000CEB12068C168490717D5802D15D0402D8A
:104BC00013D00168C94309070FD401680025406864
:104BD00000902046FFF7ADFF0820606484F8405045
:104BE0000120BDE8F8830320FBE72068006835EA70
:104BF000000004D00020B842D2D00020F1E701200C
:104C0000F9E70907090E002804DB00F1E02080F82D
:104C10000014704700F00F0000F1E02080F8141D30
:104C2000704703B401984100009850EAC12018BFB2
:104C300004204A0D18BF40F0010040F2FF72B2EBB1
:104C4000515F08BF40F00200012808BF052002B0F4
:104C500070474100080218BF04200A0E18BF40F038
:104C600001004FF07F4232EA010108BF40F002002C
:104C7000012808BF0520704700B510EE101A2DED71
:104C8000028B81B0524A6846B2EB410F2ED94FF0E9
:104C9000E640B0EB410F94BF00204FF0FF30009092
:104CA0000098B0EE408A00286ADB10F0010F4BD06C
:104CB00068EE080A9FED471A9FED470A00EE810A49
:104CC0009FED461A10F0020F00EE801AB7EE000AB0
:104CD00000EE810A02BF01B0BDEC028B00BD00BF37
:104CE00001B0B1EE400ABDEC028B00BD3C4B21F09F
:104CF0000042934241D911F0004FDFED3A0A20EE15
:104D0000201ADFED390A19BF31EE601A71EE200A60
:104D100031EE201A71EE600ABDEEE01A11EE100AB3
:104D20009FED321A00F0030000EEC10A9FED301A29
:104D3000009000EEC10A9FED2F1A00EEC10A9FED10
:104D40002E1A00EEC10AABE728EE080A9FED2B1AD7
:104D5000DFED2B0A10F0020F40EE410A9FED291AF9
:104D600000EE201A61EE000AB0EE480A08EE200AB2
:104D7000B6D101B0BDEC028B00BD00F059F88FE751
:104D800018EE100A4000B0F17F4F0DD218EE100A55
:104D9000FFF75FFF042808BF00F042F8B0EE480AB2
:104DA00001B0BDEC028B00BD09D10120FBF77FFBF8
:104DB00001B0BDEC028B5DF804EB00F029B801B046
:104DC000B0EE480ABDEC028B5DF804EB00F01CB8B5
:104DD000B61F927EB93AB2BACA9F2A3DDDFFFFBE26
:104DE000490E494683F9223F0000004B0000C93FAD
:104DF00000A0FD390020A2331A61342C336D4C39E8
:104E0000DA82083CA0AA2ABE30EE000A70470000F1
:104E1000DFED020A80EEA00A7047000000000000EB
:104E20009FED020A20EE000A70470000000000100B
:104E30002DE9F0014FF07F42B2EB410F9FBF4FF0E1
:104E4000FF310160BDE8F00170474FF0004242EAD7
:104E50000123C1F3C752783A551112F01F0C434C8D
:104E6000CCF120067C44C1F3C752A2F178024FEA8C
:104E7000621204EB820254F8254008BFD2E90156C1
:104E800012D0556804FA0CF425FA06F73C439768EB
:104E900005FA0CF527FA06F8D26807FA0CFCF2407E
:104EA00045EA08054CEA0206A4FB034CA5FB0352A5
:104EB000A6FB03631D449D4234BF0126002613193F
:104EC000334416B1934202D903E0934201D2012246
:104ED00000E00022624402F1200C9206DC0C42EA5F
:104EE000443200EE102A5B03DFED210AF8EEC01A0F
:104EF00000EE103A4FEA9C1C11F0004FB8EE400A49
:104F0000C0F800C020EE201A00EE105ADFED190A9A
:104F1000B8EE400A20EE200A71EE810A70EE800A97
:104F200010EE902A02F500626FF30B0200EE902A59
:104F300070EEE11A31EEC11ADFED101A30EE411AAF
:104F40009FED0D0A20EE800A01EE210A9FED0C1A5A
:104F500000EE810A04BFBDE8F0017047CCF180513A
:104F60000160BDE8F001B1EE400A7047F8080000AA
:104F7000000000360000802C22AAFD29DB0FC92F7B
:104F80000000C92F10B5002201211848FFF7BAFB15
:104F9000164800220221E030FFF7B4FB0022032173
:104FA0001348FFF7AFFB124800220421E030FFF75F
:104FB000A9FB002205210F48FFF7A4FB0D480022A2
:104FC0000621E030FFF79EFB002207210A48FFF789
:104FD00099FB094800220821E030FFF793FB0022EB
:104FE000BDE8104009210548FFF78CBBA000002058
:104FF0006002002020040020E0050020A00700201F
:1050000030380A2801D20120704700207047000084
:105010002DED028B82B0FDF7CBFBFFF78BF9FEF78E
:1050200067FEFEF73FFEFFF729F8FEF719FEFFF7D0
:1050300009F8FEF713FFFEF78FFFFEF7E9FEA4481D
:105040000021012241618161C16101604160026210
:1050500001614FF4FA60FDF78DFA9D499D48FCF718
:1050600075FD9C48FDF7BEF802219A48FCF7F3FC59
:105070009948FDF7F9FF00219748FEF767FA0421E8
:105080009548FEF763FA08219348FEF75FFA0C2172
:105090009148FEF75BFA9148FDF7E6FF00218F4843
:1050A000FEF754FA04218D48FEF750FA08218B4888
:1050B000FEF74CFA4FF47A70FDF75CFA8448012150
:1050C0002830FFF7EBFA0220FDF754FA012184485B
:1050D000FFF7E4FA0220FDF74DFA81480121E030A4
:1050E000FFF7DCFA0220FDF745FA01217D48FFF7C2
:1050F000D5FA0220FDF73EFA7A480121E030FFF7A9
:10510000CDFA0220FDF736FA01217748FFF7C6FAFB
:105110000220FDF72FFA74480121E030FFF7BEFAB4
:105120000220FDF727FA01217048FFF7B7FA0220A5
:10513000FDF720FA6D480121E030FFF7AFFA0220B9
:10514000FDF718FA624800212830FFF77DFA604821
:105150002830FFF7B1F90220FDF70CFA0021604872
:10516000FFF772FA5E48FFF7A7F90220FDF702FA8F
:105170005B480021E030FFF767FA5948E030FFF75D
:105180009BF90220FDF7F6F900215648FFF75CFA7B
:105190005448FFF791F90220FDF7ECF9514800213E
:1051A000E030FFF751FA4F48E030FFF785F9022071
:1051B000FDF7E0F900214C48FFF746FA4A48FFF7AF
:1051C0007BF90220FDF7D6F947480021E030FFF7D0
:1051D0003BFA4548E030FFF76FF90220FDF7CAF9C6
:1051E00000214248FFF730FA4048FFF765F90220F6
:1051F000FDF7C0F93D480021E030FFF725FA3B48B4
:10520000E030FFF759F90220FDF7B4F93848FDF70F
:1052100067FFDFF8D4809FED378A374C4FF07E5917
:1052200008F1E00894ED130A10EE100A484526DA5A
:10523000F7EE000AB2EE0E1A70EE200AB0EE000A87
:10524000C4ED130A20EE800A20EE811AF0EE480A1F
:1052500084ED0A0A84ED0B0A84ED0C0A84ED0D0A34
:1052600084ED0E0A84ED0F0A84ED101A84ED110A04
:1052700084ED120AB0EE602AF0EE601A07E0F0EE5C
:10528000480AF0EE001AB0EE602AB2EE0E1A164886
:1052900094ED070AE030FFF737F90120FDF76AF9CE
:1052A000D8F85070E06900F09DF905460E46384682
:1052B00000F098F941EC100BCDE9005653EC102B9F
:1052C0000EA0FFF705F80120FDF754F9AAE700004A
:1052D000780000209C080020C40800200C09002051
:1052E000800100204003002000050020C0060020AF
:1052F00054090020000000000000002025662C2535
:1053000066200D0A0000000010B500290AD00878B8
:10531000002807D005487844FBF772FF002801D029
:10532000002010BD0248784410BD00001E0500009A
:105330001605000010B500290AD00878002807D00B
:1053400005487844FBF75CFF002801D0002010BD21
:105350000248784410BD00000E050000060500005C
:1053600021F00042A2F16052B2F5801F01F000432B
:1053700028BFD2F17F6C0BD95FEA001C43EAC2025E
:1053800042EB507018BF704728BF20F001007047F3
:10539000B2F5801FBCBF184670474FEA410C1CF5A0
:1053A000001F02D2084600F093B970B500F0C6F8AD
:1053B00000000089FFF7F6BF4FF00040A0F5800025
:1053C0007047B0FA80F310FA03F10AD0C3F11D035D
:1053D00003F580634FEA41504FEA035202EBD121BB
:1053E00070474FF000007047DFF848C170B51CEA05
:1053F000111E1EBF1CEA13159EEA0C0F95EA0C0F36
:1054000000F06F8081EA030423EA4C134EEAD47E55
:1054100021EA4C1141F4801143F48013AE44A1FB06
:10542000024CA0FB0365AEF17F7E361955EB0C05EF
:10543000A1FB034C4CF10003A0FB021C16EB0C0675
:10544000654153F10003094218BF46F0010613F409
:10545000007F0BD14FEA03314FEA0530340341EAB4
:10546000155140EA16506FF003020AE04FEAC321DB
:105470004FEAC520F40241EA555140EA56506FF018
:10548000020202EB2E4201EB025585EACE710AD0F0
:105490005FEA440C18BF24F0004450F1000041F1D1
:1054A000000120EAD47040F2FE7C624500D270BD5B
:1054B000A84214BF4FF080444FF04044002E08BF74
:1054C0000024BEF1806FA8BFA1F1C041BDE87040CB
:1054D00080F282804FF0000001F1C04101F00041F4
:1054E00070479EEA0C0F0CEA131518BF95EA0C0FD3
:1054F00006D04FF0000081EA030E0EF0004170BDAF
:1055000000F01CF88900013E00F007B800F009B86F
:105510004FEA430C5FEA5C5C08D081EA030100F0CB
:105520005BB84FEA410C5FEA5C5CF6D14FF00000DB
:10553000014970470000FF070000F87F0EF1020EDE
:105540002EF0030E5EF8046B364205D4012A43EBBD
:10555000030515F5001F12D8012841EB010C1CF5BD
:10556000001F0CD80ED14FEAD17C15F5001F0CEBB3
:105570004C0C0CF1020C08BF4CEBD37C04E04FF058
:10558000080C01E04FEAD37C0CEB4C0526FA05F63B
:1055900006F00706B6F1040C06D20EEB860CBDE849
:1055A00070404CF0010C6047DFE80CF0090B020280
:1055B0004FF000414FF00000A1F5002170BD1946E9
:1055C0001046012851EB010418BFD4F5001484BF24
:1055D000002001F0004170BD0808A0F500114FEA5D
:1055E0003101704743004FEAD30C4FEA3C0C434073
:1055F0001FBF40070CF1605113F0FE4F70471CF0C5
:10560000006F03D100200CF0004170470CF0004304
:1056100043EA507010B540EACC0000F00EF800BF2D
:10562000000000924FEA0001FFF7D6BF4FF00041A3
:105630004FF00000A1F5002170470EF1020E2EF090
:10564000030E5EF8044B244204D44FEA4102B2F147
:105650007F4F11D84FEA4003B3F17F4F0CD80ED1E2
:105660004FEAD07CB2F17F4F0CEB4C0C0CF1020CEA
:1056700008BF4CEBD17C04E04FF0080C01E04FEA8E
:10568000D17C0CEB4C0324FA03F404F00704B4F1CE
:10569000040C06D20EEB840CBDE810404CF0010C5B
:1056A0006047DFE80CF0070802024FF00040A0F569
:1056B000800010BD0846420018BFD2F1807288BF3A
:1056C00000F0004010BD4FF04070E1EE100A70474E
:1056D000FF2141EAD050C0057047FBF71CBB000614
:1056E0001016000610160000000000000000010265
:1056F0000304060708090000000001020304057006
:1057000006700A700B70107011701470167017709C
:10571000187019701A701B701C701D70000000004A
:1057200000000000303132333435363738394142E9
:1057300043444546403058003031323334353637F3
:10574000383961626364656640307800040000089F
:105750000000000000000002000100001000000036
:10576000000000006E83F9A22915444ED15727FC92
:10577000C0DD34F5999562DB4190433CAB6351FE4B
:1057800002400000000000A00000000005400000F2
:10579000000000C8000000000C4000000000409C19
:1057A00000000000194000000020BCBE0000000006
:1057B00034400000BFC91B8E00000004B54000004B
:1057C000504BCFD06607E2CF010000006C410000D3
:1057D0003E8251AADFEEA73401000000D94200004A
:1057E000DCB5A0E23A301F97FFFFFFFFB445000091
:1057F000FD25A0C8E9A3C14FFFFFFFFFFF3F000049
:105800000000008000000000FF3F0000000000805A
:10581000000000006459000800000020740000002F
:10582000C4010008D8590008740000208412000048
:10583000E00100081C00000043000000F8FFFFFF2B
:105840000C0000000E0000000F0000002E00000001
:105850001001000043000000F8FFFFFF004040403F
:105860004040404040404141414141404040404033
:1058700040404040404040404040404040050202DF
:10588000020202020202020202020202022020209E
:1058900020202020202020020202020202029090FA
:1058A00090909090101010101010101010101010F8
:1058B000101010101010101002020202020288884C
:1058C0008888888808080808080808080808080858
:1058D0000808080808080808020202024000000040
:1058E00000000000000000000000000000000000B8
:1058F00000000000000000000000000000000000A8
:105900000000000000000000000000000000000097
:105910000000000000000000000000000000000087
:105920000000000000000000000000000000000077
:105930000000000000000000000000000000000067
:105940000000000000000000000000000000000057
:105950000000000000000000000000000000000047
:1059600025F6FFFF0000000000000000000000001E
:105970000000000000000000000000000000000027
:105980000000000000000000000000000000000017
:105990000000000000000000000000000000000007
:1059A00000000000000000000000000000000000F7
:1059B00000000000000000000000000001000000E6
:1059C00010000000000000000024F40000000000AF
:0859D0000000000000000000CF
:040000050800018965
:00000001FF
